:020000020000FC
:1020000007EB0093E50000E10093E6000FE000938A
:10201000E70000E80093E40008950F921F920F93E9
:102020001F932F933F93AF93BF93EF93FF93125060
:10203000003249F00A3220F0013610F40C942410DA
:1020400000E60C9424100CE20A52000F000FE4E9A1
:10205000F0E20024E00FF01DACEEBB27212F169517
:10206000A10F34E000EF20FD0295059020FD0294C1
:102070001C90102210281C9215963A95B1F7FF91EA
:10208000EF91BF91AF913F912F911F910F911F90B1
:102090000F900895080A0A0E00080A0200000000C6
:1020A00000000A0001050A000800000409050505F2
:1020B0000801010001010E0101010B0100050B00E7
:1020C00001040B0101040F010101010001050F01D1
:1020D00001050B01000200040000000008000008D8
:1020E00000000A01000200040000000000000000DF
:1020F00001050F000109090301040401010901039D
:1021000001040E0101040E0001040D0100050F0081
:10211000000800020001050108040608000404018B
:1021200008070500000705080105050101050E0067
:102130000105050901050E08010200090108000258
:1021400000050501080404040005050C0802000C44
:102150000802000209000005010404010002000851
:10216000010101010000000000000001090F0F0F34
:040000000C940D014E
:100200004E45425544452D4C4920505253455420AB
:100210004E455A4D4F4B4E454D000FEF0DBF04E07C
:100220000EBF0E940010E0E0F2E030E240E250E257
:1002300060E270E280E290E2A0E2B0E2C0E226E09A
:10024000D22F342F452F562F672F782F892F9A2F93
:10025000AB2FC03019F0BC2FC59103C0B0E22A9576
:10026000E1F20C2F1D2F1395C03009F400E20E941B
:100270000D100B2F1A950E940D100A2F1A950E942F
:100280000D10092F1A950E940D10123011F1082F30
:100290001A950E940D101230E1F0072F1A950E9456
:1002A0000D101230B1F0062F1A950E940D10123069
:1002B00081F0052F1A950E940D10123051F0042F75
:1002C0001A950E940D10123021F0032F1A950E94EA
:1002D0000D10B7CF0F930FB70F931F932F930BE012
:1002E0001BE02BE02A95F1F71A95E1F70A95D1F773
:0C02F0002F911F910F910FBF0F910895E7
:00000001FF
