:020000020000FC
:1020000007EB0093E50000E10093E6000FE000938A
:10201000E70000E80093E40008950F921F920F93E9
:102020001F932F933F93AF93BF93EF93FF93125060
:10203000003249F00A3220F0013610F40C942410DA
:1020400000E60C9424100CE20A52000F000FE4E9A1
:10205000F0E20024E00FF01DACEEBB27212F169517
:10206000A10F34E000EF20FD0295059020FD0294C1
:102070001C90102210281C9215963A95B1F7FF91EA
:10208000EF91BF91AF913F912F911F910F911F90B1
:102090000F900895080A0A0E00080A0200000000C6
:1020A00000000A0001050A000800000409050505F2
:1020B0000801010001010E0101010B0100050B00E7
:1020C00001040B0101040F010101010001050F01D1
:1020D00001050B01000200040000000008000008D8
:1020E00000000A01000200040000000000000000DF
:1020F00001050F000109090301040401010901039D
:1021000001040E0101040E0001040D0100050F0081
:10211000000800020001050108040608000404018B
:1021200008070500000705080105050101050E0067
:102130000105050901050E08010200090108000258
:1021400000050501080404040005050C0802000C44
:102150000802000209000005010404010002000851
:10216000010101010000000000000001090F0F0F34
:040000000C9400015B
:040014000C94430104
:10020000F8940FEF0DBF04E00EBF0E9400100E9493
:10021000B7010E94A7010E9491010E9432010E9431
:100220001201FBCF20E300910601020F17E00E94AC
:100230000D1000910501020F16E00E940D100091B3
:100240000401020F15E00E940D1000910301020F3E
:1002500013E00E940D1000910201020F12E00E94B3
:100260000D10089503B12FEF2A95F1F713B1007D1A
:10027000107D0117B9F704FF0E94910106FF7894E1
:1002800007FFF8940895F8940F930FB70F931F93F7
:100290002F933F934F935F936F93009100011091C1
:1002A0000201209103013091040140910501509118
:1002B00006016091010163950395603819F460E0CF
:1002C0000C9464010D30A9F400E053955A3089F480
:1002D00050E043954A3069F440E03395363049F4B4
:1002E00030E023952A3029F420E01395163009F4E4
:1002F00010E000930001109302012093030130935A
:1003000004014093050150930601609301016F9130
:100310005F914F913F912F911F910F910FBF0F91BF
:10032000189550E017F451E0F89460E060930001F4
:1003300060930201609303016093040160930501DF
:10034000609306016093010150FD789408951DB1FA
:10035000137F0EB10C601DB90EB900E000937F0051
:1003600014B11F7205B1006D14B905B9089508E004
:100370000093B60001E00093700001E00093B0002C
:0603800000270DBB0895EB
:00000001FF
